{
  "_format": "hh-sol-artifact-1",
  "contractName": "WzglERC20",
  "sourceName": "contracts/WzglERC20.sol",
  "abi": [
    {
      "anonymous": false,
      "inputs": [
        {
          "indexed": false,
          "internalType": "address",
          "name": "_user",
          "type": "address"
        }
      ],
      "name": "AddedToBlackList",
      "type": "event"
    },
    {
      "anonymous": false,
      "inputs": [
        {
          "indexed": false,
          "internalType": "address",
          "name": "previousAdmin",
          "type": "address"
        },
        {
          "indexed": false,
          "internalType": "address",
          "name": "newAdmin",
          "type": "address"
        }
      ],
      "name": "AdminChanged",
      "type": "event"
    },
    {
      "anonymous": false,
      "inputs": [
        {
          "indexed": true,
          "internalType": "address",
          "name": "owner",
          "type": "address"
        },
        {
          "indexed": true,
          "internalType": "address",
          "name": "spender",
          "type": "address"
        },
        {
          "indexed": false,
          "internalType": "uint256",
          "name": "value",
          "type": "uint256"
        }
      ],
      "name": "Approval",
      "type": "event"
    },
    {
      "anonymous": false,
      "inputs": [
        {
          "indexed": true,
          "internalType": "address",
          "name": "beacon",
          "type": "address"
        }
      ],
      "name": "BeaconUpgraded",
      "type": "event"
    },
    {
      "anonymous": false,
      "inputs": [
        {
          "indexed": false,
          "internalType": "uint8",
          "name": "version",
          "type": "uint8"
        }
      ],
      "name": "Initialized",
      "type": "event"
    },
    {
      "anonymous": false,
      "inputs": [
        {
          "indexed": true,
          "internalType": "address",
          "name": "previousOwner",
          "type": "address"
        },
        {
          "indexed": true,
          "internalType": "address",
          "name": "newOwner",
          "type": "address"
        }
      ],
      "name": "OwnershipTransferred",
      "type": "event"
    },
    {
      "anonymous": false,
      "inputs": [
        {
          "indexed": false,
          "internalType": "address",
          "name": "",
          "type": "address"
        },
        {
          "indexed": false,
          "internalType": "uint256",
          "name": "",
          "type": "uint256"
        }
      ],
      "name": "Received",
      "type": "event"
    },
    {
      "anonymous": false,
      "inputs": [
        {
          "indexed": false,
          "internalType": "address",
          "name": "_user",
          "type": "address"
        }
      ],
      "name": "RemovedFromBlackList",
      "type": "event"
    },
    {
      "anonymous": false,
      "inputs": [
        {
          "indexed": true,
          "internalType": "address",
          "name": "from",
          "type": "address"
        },
        {
          "indexed": true,
          "internalType": "address",
          "name": "to",
          "type": "address"
        },
        {
          "indexed": false,
          "internalType": "uint256",
          "name": "value",
          "type": "uint256"
        }
      ],
      "name": "Transfer",
      "type": "event"
    },
    {
      "anonymous": false,
      "inputs": [
        {
          "indexed": true,
          "internalType": "address",
          "name": "implementation",
          "type": "address"
        }
      ],
      "name": "Upgraded",
      "type": "event"
    },
    {
      "inputs": [
        {
          "internalType": "address",
          "name": "_blackAddress",
          "type": "address"
        }
      ],
      "name": "addToBlackList",
      "outputs": [],
      "stateMutability": "nonpayable",
      "type": "function"
    },
    {
      "inputs": [
        {
          "internalType": "address",
          "name": "owner",
          "type": "address"
        },
        {
          "internalType": "address",
          "name": "spender",
          "type": "address"
        }
      ],
      "name": "allowance",
      "outputs": [
        {
          "internalType": "uint256",
          "name": "",
          "type": "uint256"
        }
      ],
      "stateMutability": "view",
      "type": "function"
    },
    {
      "inputs": [
        {
          "internalType": "address",
          "name": "spender",
          "type": "address"
        },
        {
          "internalType": "uint256",
          "name": "amount",
          "type": "uint256"
        }
      ],
      "name": "approve",
      "outputs": [
        {
          "internalType": "bool",
          "name": "",
          "type": "bool"
        }
      ],
      "stateMutability": "nonpayable",
      "type": "function"
    },
    {
      "inputs": [
        {
          "internalType": "address",
          "name": "account",
          "type": "address"
        }
      ],
      "name": "balanceOf",
      "outputs": [
        {
          "internalType": "uint256",
          "name": "",
          "type": "uint256"
        }
      ],
      "stateMutability": "view",
      "type": "function"
    },
    {
      "inputs": [
        {
          "internalType": "address",
          "name": "account",
          "type": "address"
        },
        {
          "internalType": "uint256",
          "name": "amount",
          "type": "uint256"
        }
      ],
      "name": "burn",
      "outputs": [],
      "stateMutability": "nonpayable",
      "type": "function"
    },
    {
      "inputs": [
        {
          "internalType": "address",
          "name": "account",
          "type": "address"
        }
      ],
      "name": "checkBlackList",
      "outputs": [
        {
          "internalType": "bool",
          "name": "",
          "type": "bool"
        }
      ],
      "stateMutability": "view",
      "type": "function"
    },
    {
      "inputs": [],
      "name": "decimals",
      "outputs": [
        {
          "internalType": "uint8",
          "name": "",
          "type": "uint8"
        }
      ],
      "stateMutability": "view",
      "type": "function"
    },
    {
      "inputs": [
        {
          "internalType": "address",
          "name": "spender",
          "type": "address"
        },
        {
          "internalType": "uint256",
          "name": "subtractedValue",
          "type": "uint256"
        }
      ],
      "name": "decreaseAllowance",
      "outputs": [
        {
          "internalType": "bool",
          "name": "",
          "type": "bool"
        }
      ],
      "stateMutability": "nonpayable",
      "type": "function"
    },
    {
      "inputs": [
        {
          "internalType": "address",
          "name": "spender",
          "type": "address"
        },
        {
          "internalType": "uint256",
          "name": "addedValue",
          "type": "uint256"
        }
      ],
      "name": "increaseAllowance",
      "outputs": [
        {
          "internalType": "bool",
          "name": "",
          "type": "bool"
        }
      ],
      "stateMutability": "nonpayable",
      "type": "function"
    },
    {
      "inputs": [],
      "name": "initialize",
      "outputs": [],
      "stateMutability": "nonpayable",
      "type": "function"
    },
    {
      "inputs": [
        {
          "internalType": "address",
          "name": "account",
          "type": "address"
        },
        {
          "internalType": "uint256",
          "name": "amount",
          "type": "uint256"
        }
      ],
      "name": "mint",
      "outputs": [],
      "stateMutability": "nonpayable",
      "type": "function"
    },
    {
      "inputs": [],
      "name": "name",
      "outputs": [
        {
          "internalType": "string",
          "name": "",
          "type": "string"
        }
      ],
      "stateMutability": "view",
      "type": "function"
    },
    {
      "inputs": [],
      "name": "owner",
      "outputs": [
        {
          "internalType": "address",
          "name": "",
          "type": "address"
        }
      ],
      "stateMutability": "view",
      "type": "function"
    },
    {
      "inputs": [],
      "name": "proxiableUUID",
      "outputs": [
        {
          "internalType": "bytes32",
          "name": "",
          "type": "bytes32"
        }
      ],
      "stateMutability": "view",
      "type": "function"
    },
    {
      "inputs": [
        {
          "internalType": "address",
          "name": "_clearedUser",
          "type": "address"
        }
      ],
      "name": "removeFromBlackList",
      "outputs": [],
      "stateMutability": "nonpayable",
      "type": "function"
    },
    {
      "inputs": [],
      "name": "renounceOwnership",
      "outputs": [],
      "stateMutability": "nonpayable",
      "type": "function"
    },
    {
      "inputs": [
        {
          "internalType": "address",
          "name": "_token",
          "type": "address"
        }
      ],
      "name": "setERC20Token",
      "outputs": [],
      "stateMutability": "nonpayable",
      "type": "function"
    },
    {
      "inputs": [],
      "name": "symbol",
      "outputs": [
        {
          "internalType": "string",
          "name": "",
          "type": "string"
        }
      ],
      "stateMutability": "view",
      "type": "function"
    },
    {
      "inputs": [],
      "name": "totalSupply",
      "outputs": [
        {
          "internalType": "uint256",
          "name": "",
          "type": "uint256"
        }
      ],
      "stateMutability": "view",
      "type": "function"
    },
    {
      "inputs": [
        {
          "internalType": "address",
          "name": "_to",
          "type": "address"
        },
        {
          "internalType": "uint256",
          "name": "_value",
          "type": "uint256"
        }
      ],
      "name": "transfer",
      "outputs": [
        {
          "internalType": "bool",
          "name": "",
          "type": "bool"
        }
      ],
      "stateMutability": "nonpayable",
      "type": "function"
    },
    {
      "inputs": [
        {
          "internalType": "address",
          "name": "from",
          "type": "address"
        },
        {
          "internalType": "address",
          "name": "to",
          "type": "address"
        },
        {
          "internalType": "uint256",
          "name": "amount",
          "type": "uint256"
        }
      ],
      "name": "transferFrom",
      "outputs": [
        {
          "internalType": "bool",
          "name": "",
          "type": "bool"
        }
      ],
      "stateMutability": "nonpayable",
      "type": "function"
    },
    {
      "inputs": [
        {
          "internalType": "address",
          "name": "newOwner",
          "type": "address"
        }
      ],
      "name": "transferOwnership",
      "outputs": [],
      "stateMutability": "nonpayable",
      "type": "function"
    },
    {
      "inputs": [
        {
          "internalType": "address",
          "name": "newImplementation",
          "type": "address"
        }
      ],
      "name": "upgradeTo",
      "outputs": [],
      "stateMutability": "nonpayable",
      "type": "function"
    },
    {
      "inputs": [
        {
          "internalType": "address",
          "name": "newImplementation",
          "type": "address"
        },
        {
          "internalType": "bytes",
          "name": "data",
          "type": "bytes"
        }
      ],
      "name": "upgradeToAndCall",
      "outputs": [],
      "stateMutability": "payable",
      "type": "function"
    },
    {
      "inputs": [],
      "name": "withdraw",
      "outputs": [],
      "stateMutability": "nonpayable",
      "type": "function"
    },
    {
      "inputs": [],
      "name": "withdrawERC20",
      "outputs": [],
      "stateMutability": "nonpayable",
      "type": "function"
    },
    {
      "stateMutability": "payable",
      "type": "receive"
    }
  ],
  "bytecode": "0x60a06040523073ffffffffffffffffffffffffffffffffffffffff1660809073ffffffffffffffffffffffffffffffffffffffff1681525034801561004357600080fd5b50608051613d3561007b6000396000818161087b0152818161090a01528181610c1501528181610ca40152610d540152613d356000f3fe6080604052600436106101855760003560e01c806352d1902d116100d15780639dc29fac1161008a578063dd62ed3e11610064578063dd62ed3e1461057f578063de562487146105bc578063e4f282ad146105e5578063f2fde38b14610622576101c5565b80639dc29fac146104dc578063a457c2d714610505578063a9059cbb14610542576101c5565b806352d1902d146103f057806370a082311461041b578063715018a6146104585780638129fc1c1461046f5780638da5cb5b1461048657806395d89b41146104b1576101c5565b80633659cfe61161013e57806340c10f191161011857806340c10f1914610359578063417c73a7146103825780634a49ac4c146103ab5780634f1ef286146103d4576101c5565b80633659cfe6146102dc57806339509351146103055780633ccfd60b14610342576101c5565b806306fdde03146101ca578063095ea7b3146101f557806318160ddd1461023257806323b872dd1461025d5780632ed6d5e81461029a578063313ce567146102b1576101c5565b366101c5577f88a5966d370b9919b20f3e2c13ff65706f196a4e32cc2c12bf57088f8852587433346040516101bb9291906127d0565b60405180910390a1005b600080fd5b3480156101d657600080fd5b506101df61064b565b6040516101ec9190612892565b60405180910390f35b34801561020157600080fd5b5061021c60048036038101906102179190612920565b6106dd565b604051610229919061297b565b60405180910390f35b34801561023e57600080fd5b50610247610700565b6040516102549190612996565b60405180910390f35b34801561026957600080fd5b50610284600480360381019061027f91906129b1565b61070a565b604051610291919061297b565b60405180910390f35b3480156102a657600080fd5b506102af610739565b005b3480156102bd57600080fd5b506102c6610862565b6040516102d39190612a20565b60405180910390f35b3480156102e857600080fd5b5061030360048036038101906102fe9190612a3b565b610879565b005b34801561031157600080fd5b5061032c60048036038101906103279190612920565b610a02565b604051610339919061297b565b60405180910390f35b34801561034e57600080fd5b50610357610a39565b005b34801561036557600080fd5b50610380600480360381019061037b9190612920565b610ac9565b005b34801561038e57600080fd5b506103a960048036038101906103a49190612a3b565b610adf565b005b3480156103b757600080fd5b506103d260048036038101906103cd9190612a3b565b610b79565b005b6103ee60048036038101906103e99190612b9d565b610c13565b005b3480156103fc57600080fd5b50610405610d50565b6040516104129190612c12565b60405180910390f35b34801561042757600080fd5b50610442600480360381019061043d9190612a3b565b610e09565b60405161044f9190612996565b60405180910390f35b34801561046457600080fd5b5061046d610e52565b005b34801561047b57600080fd5b50610484610e66565b005b34801561049257600080fd5b5061049b61107d565b6040516104a89190612c2d565b60405180910390f35b3480156104bd57600080fd5b506104c66110a7565b6040516104d39190612892565b60405180910390f35b3480156104e857600080fd5b5061050360048036038101906104fe9190612920565b611139565b005b34801561051157600080fd5b5061052c60048036038101906105279190612920565b61114f565b604051610539919061297b565b60405180910390f35b34801561054e57600080fd5b5061056960048036038101906105649190612920565b6111c6565b604051610576919061297b565b60405180910390f35b34801561058b57600080fd5b506105a660048036038101906105a19190612c48565b611267565b6040516105b39190612996565b60405180910390f35b3480156105c857600080fd5b506105e360048036038101906105de9190612a3b565b6112ee565b005b3480156105f157600080fd5b5061060c60048036038101906106079190612a3b565b611374565b604051610619919061297b565b60405180910390f35b34801561062e57600080fd5b5061064960048036038101906106449190612a3b565b6113ca565b005b606060cc805461065a90612cb7565b80601f016020809104026020016040519081016040528092919081815260200182805461068690612cb7565b80156106d35780601f106106a8576101008083540402835291602001916106d3565b820191906000526020600020905b8154815290600101906020018083116106b657829003601f168201915b5050505050905090565b6000806106e861144e565b90506106f5818585611456565b600191505092915050565b600060cb54905090565b60008061071561144e565b9050610722858285611621565b61072d8585856116ad565b60019150509392505050565b610741611931565b600060fb60009054906101000a900473ffffffffffffffffffffffffffffffffffffffff1673ffffffffffffffffffffffffffffffffffffffff166370a0823160fc60009054906101000a900473ffffffffffffffffffffffffffffffffffffffff166040518263ffffffff1660e01b81526004016107c09190612c2d565b60206040518083038186803b1580156107d857600080fd5b505afa1580156107ec573d6000803e3d6000fd5b505050506040513d601f19601f820116820180604052508101906108109190612cfe565b905061085f338260fb60009054906101000a900473ffffffffffffffffffffffffffffffffffffffff1673ffffffffffffffffffffffffffffffffffffffff166119af9092919063ffffffff16565b50565b600060fe60009054906101000a900460ff16905090565b7f000000000000000000000000000000000000000000000000000000000000000073ffffffffffffffffffffffffffffffffffffffff163073ffffffffffffffffffffffffffffffffffffffff161415610908576040517f08c379a00000000000000000000000000000000000000000000000000000000081526004016108ff90612d9d565b60405180910390fd5b7f000000000000000000000000000000000000000000000000000000000000000073ffffffffffffffffffffffffffffffffffffffff16610947611a35565b73ffffffffffffffffffffffffffffffffffffffff161461099d576040517f08c379a000000000000000000000000000000000000000000000000000000000815260040161099490612e2f565b60405180910390fd5b6109a681611a8c565b6109ff81600067ffffffffffffffff8111156109c5576109c4612a72565b5b6040519080825280601f01601f1916602001820160405280156109f75781602001600182028036833780820191505090505b506000611a97565b50565b600080610a0d61144e565b9050610a2e818585610a1f8589611267565b610a299190612e7e565b611456565b600191505092915050565b610a41611931565b600060fc60009054906101000a900473ffffffffffffffffffffffffffffffffffffffff1673ffffffffffffffffffffffffffffffffffffffff163190503373ffffffffffffffffffffffffffffffffffffffff166108fc829081150290604051600060405180830381858888f19350505050158015610ac5573d6000803e3d6000fd5b5050565b610ad1611931565b610adb8282611c14565b5050565b610ae7611931565b600160fd60008373ffffffffffffffffffffffffffffffffffffffff1673ffffffffffffffffffffffffffffffffffffffff16815260200190815260200160002060006101000a81548160ff0219169083151502179055507f83f4fb4e43c8e9d38b6fa4c441afe892be28f9724b9c128fb99dfee430f60e0881604051610b6e9190612c2d565b60405180910390a150565b610b81611931565b600060fd60008373ffffffffffffffffffffffffffffffffffffffff1673ffffffffffffffffffffffffffffffffffffffff16815260200190815260200160002060006101000a81548160ff0219169083151502179055507fa5d874c36615fb5b3b7b19ec879ee123ce071c81392af0dea8c60f4fcdf1864981604051610c089190612c2d565b60405180910390a150565b7f000000000000000000000000000000000000000000000000000000000000000073ffffffffffffffffffffffffffffffffffffffff163073ffffffffffffffffffffffffffffffffffffffff161415610ca2576040517f08c379a0000000000000000000000000000000000000000000000000000000008152600401610c9990612d9d565b60405180910390fd5b7f000000000000000000000000000000000000000000000000000000000000000073ffffffffffffffffffffffffffffffffffffffff16610ce1611a35565b73ffffffffffffffffffffffffffffffffffffffff1614610d37576040517f08c379a0000000000000000000000000000000000000000000000000000000008152600401610d2e90612e2f565b60405180910390fd5b610d4082611a8c565b610d4c82826001611a97565b5050565b60007f000000000000000000000000000000000000000000000000000000000000000073ffffffffffffffffffffffffffffffffffffffff163073ffffffffffffffffffffffffffffffffffffffff1614610de0576040517f08c379a0000000000000000000000000000000000000000000000000000000008152600401610dd790612f46565b60405180910390fd5b7f360894a13ba1a3210667c828492db98dca3e2076cc3735a920a3ca505d382bbc60001b905090565b600060c960008373ffffffffffffffffffffffffffffffffffffffff1673ffffffffffffffffffffffffffffffffffffffff168152602001908152602001600020549050919050565b610e5a611931565b610e646000611d75565b565b60008060019054906101000a900460ff16159050808015610e975750600160008054906101000a900460ff1660ff16105b80610ec45750610ea630611e3b565b158015610ec35750600160008054906101000a900460ff1660ff16145b5b610f03576040517f08c379a0000000000000000000000000000000000000000000000000000000008152600401610efa90612fd8565b60405180910390fd5b60016000806101000a81548160ff021916908360ff1602179055508015610f40576001600060016101000a81548160ff0219169083151502179055505b610fb46040518060400160405280600581526020017f575a474c320000000000000000000000000000000000000000000000000000008152506040518060400160405280600581526020017f575a474c32000000000000000000000000000000000000000000000000000000815250611e5e565b610fbc611ebb565b610fc4611f14565b601260fe60006101000a81548160ff021916908360ff1602179055503060fc60006101000a81548173ffffffffffffffffffffffffffffffffffffffff021916908373ffffffffffffffffffffffffffffffffffffffff160217905550801561107a5760008060016101000a81548160ff0219169083151502179055507f7f26b83ff96e1f2b6a682f133852f6798a09c465da95921460cefb38474024986001604051611071919061303d565b60405180910390a15b50565b6000609760009054906101000a900473ffffffffffffffffffffffffffffffffffffffff16905090565b606060cd80546110b690612cb7565b80601f01602080910402602001604051908101604052809291908181526020018280546110e290612cb7565b801561112f5780601f106111045761010080835404028352916020019161112f565b820191906000526020600020905b81548152906001019060200180831161111257829003601f168201915b5050505050905090565b611141611931565b61114b8282611f65565b5050565b60008061115a61144e565b905060006111688286611267565b9050838110156111ad576040517f08c379a00000000000000000000000000000000000000000000000000000000081526004016111a4906130ca565b60405180910390fd5b6111ba8286868403611456565b60019250505092915050565b600060fd60003373ffffffffffffffffffffffffffffffffffffffff1673ffffffffffffffffffffffffffffffffffffffff16815260200190815260200160002060009054906101000a900460ff1615611255576040517f08c379a000000000000000000000000000000000000000000000000000000000815260040161124c90613136565b60405180910390fd5b61125f838361213e565b905092915050565b600060ca60008473ffffffffffffffffffffffffffffffffffffffff1673ffffffffffffffffffffffffffffffffffffffff16815260200190815260200160002060008373ffffffffffffffffffffffffffffffffffffffff1673ffffffffffffffffffffffffffffffffffffffff16815260200190815260200160002054905092915050565b6112f6611931565b600073ffffffffffffffffffffffffffffffffffffffff168173ffffffffffffffffffffffffffffffffffffffff16141561133057600080fd5b8060fb60006101000a81548173ffffffffffffffffffffffffffffffffffffffff021916908373ffffffffffffffffffffffffffffffffffffffff16021790555050565b600060fd60008373ffffffffffffffffffffffffffffffffffffffff1673ffffffffffffffffffffffffffffffffffffffff16815260200190815260200160002060009054906101000a900460ff169050919050565b6113d2611931565b600073ffffffffffffffffffffffffffffffffffffffff168173ffffffffffffffffffffffffffffffffffffffff161415611442576040517f08c379a0000000000000000000000000000000000000000000000000000000008152600401611439906131c8565b60405180910390fd5b61144b81611d75565b50565b600033905090565b600073ffffffffffffffffffffffffffffffffffffffff168373ffffffffffffffffffffffffffffffffffffffff1614156114c6576040517f08c379a00000000000000000000000000000000000000000000000000000000081526004016114bd9061325a565b60405180910390fd5b600073ffffffffffffffffffffffffffffffffffffffff168273ffffffffffffffffffffffffffffffffffffffff161415611536576040517f08c379a000000000000000000000000000000000000000000000000000000000815260040161152d906132ec565b60405180910390fd5b8060ca60008573ffffffffffffffffffffffffffffffffffffffff1673ffffffffffffffffffffffffffffffffffffffff16815260200190815260200160002060008473ffffffffffffffffffffffffffffffffffffffff1673ffffffffffffffffffffffffffffffffffffffff168152602001908152602001600020819055508173ffffffffffffffffffffffffffffffffffffffff168373ffffffffffffffffffffffffffffffffffffffff167f8c5be1e5ebec7d5bd14f71427d1e84f3dd0314c0f7b2291e5b200ac8c7c3b925836040516116149190612996565b60405180910390a3505050565b600061162d8484611267565b90507fffffffffffffffffffffffffffffffffffffffffffffffffffffffffffffffff81146116a75781811015611699576040517f08c379a000000000000000000000000000000000000000000000000000000000815260040161169090613358565b60405180910390fd5b6116a68484848403611456565b5b50505050565b600073ffffffffffffffffffffffffffffffffffffffff168373ffffffffffffffffffffffffffffffffffffffff16141561171d576040517f08c379a0000000000000000000000000000000000000000000000000000000008152600401611714906133ea565b60405180910390fd5b600073ffffffffffffffffffffffffffffffffffffffff168273ffffffffffffffffffffffffffffffffffffffff16141561178d576040517f08c379a00000000000000000000000000000000000000000000000000000000081526004016117849061347c565b60405180910390fd5b611798838383612161565b600060c960008573ffffffffffffffffffffffffffffffffffffffff1673ffffffffffffffffffffffffffffffffffffffff1681526020019081526020016000205490508181101561181f576040517f08c379a00000000000000000000000000000000000000000000000000000000081526004016118169061350e565b60405180910390fd5b81810360c960008673ffffffffffffffffffffffffffffffffffffffff1673ffffffffffffffffffffffffffffffffffffffff168152602001908152602001600020819055508160c960008573ffffffffffffffffffffffffffffffffffffffff1673ffffffffffffffffffffffffffffffffffffffff16815260200190815260200160002060008282546118b49190612e7e565b925050819055508273ffffffffffffffffffffffffffffffffffffffff168473ffffffffffffffffffffffffffffffffffffffff167fddf252ad1be2c89b69c2b068fc378daa952ba7f163c4a11628f55a4df523b3ef846040516119189190612996565b60405180910390a361192b848484612166565b50505050565b61193961144e565b73ffffffffffffffffffffffffffffffffffffffff1661195761107d565b73ffffffffffffffffffffffffffffffffffffffff16146119ad576040517f08c379a00000000000000000000000000000000000000000000000000000000081526004016119a49061357a565b60405180910390fd5b565b611a308363a9059cbb60e01b84846040516024016119ce9291906127d0565b604051602081830303815290604052907bffffffffffffffffffffffffffffffffffffffffffffffffffffffff19166020820180517bffffffffffffffffffffffffffffffffffffffffffffffffffffffff838183161783525050505061216b565b505050565b6000611a637f360894a13ba1a3210667c828492db98dca3e2076cc3735a920a3ca505d382bbc60001b612232565b60000160009054906101000a900473ffffffffffffffffffffffffffffffffffffffff16905090565b611a94611931565b50565b611ac37f4910fdfa16fed3260ed0e7147f7cc6da11a60208b5b9406d12a635614ffd914360001b61223c565b60000160009054906101000a900460ff1615611ae757611ae283612246565b611c0f565b8273ffffffffffffffffffffffffffffffffffffffff166352d1902d6040518163ffffffff1660e01b815260040160206040518083038186803b158015611b2d57600080fd5b505afa925050508015611b5e57506040513d601f19601f82011682018060405250810190611b5b91906135c6565b60015b611b9d576040517f08c379a0000000000000000000000000000000000000000000000000000000008152600401611b9490613665565b60405180910390fd5b7f360894a13ba1a3210667c828492db98dca3e2076cc3735a920a3ca505d382bbc60001b8114611c02576040517f08c379a0000000000000000000000000000000000000000000000000000000008152600401611bf9906136f7565b60405180910390fd5b50611c0e8383836122ff565b5b505050565b600073ffffffffffffffffffffffffffffffffffffffff168273ffffffffffffffffffffffffffffffffffffffff161415611c84576040517f08c379a0000000000000000000000000000000000000000000000000000000008152600401611c7b90613763565b60405180910390fd5b611c9060008383612161565b8060cb6000828254611ca29190612e7e565b925050819055508060c960008473ffffffffffffffffffffffffffffffffffffffff1673ffffffffffffffffffffffffffffffffffffffff1681526020019081526020016000206000828254611cf89190612e7e565b925050819055508173ffffffffffffffffffffffffffffffffffffffff16600073ffffffffffffffffffffffffffffffffffffffff167fddf252ad1be2c89b69c2b068fc378daa952ba7f163c4a11628f55a4df523b3ef83604051611d5d9190612996565b60405180910390a3611d7160008383612166565b5050565b6000609760009054906101000a900473ffffffffffffffffffffffffffffffffffffffff16905081609760006101000a81548173ffffffffffffffffffffffffffffffffffffffff021916908373ffffffffffffffffffffffffffffffffffffffff1602179055508173ffffffffffffffffffffffffffffffffffffffff168173ffffffffffffffffffffffffffffffffffffffff167f8be0079c531659141344cd1fd0a4f28419497f9722a3daafe3b4186f6b6457e060405160405180910390a35050565b6000808273ffffffffffffffffffffffffffffffffffffffff163b119050919050565b600060019054906101000a900460ff16611ead576040517f08c379a0000000000000000000000000000000000000000000000000000000008152600401611ea4906137f5565b60405180910390fd5b611eb7828261232b565b5050565b600060019054906101000a900460ff16611f0a576040517f08c379a0000000000000000000000000000000000000000000000000000000008152600401611f01906137f5565b60405180910390fd5b611f126123ac565b565b600060019054906101000a900460ff16611f63576040517f08c379a0000000000000000000000000000000000000000000000000000000008152600401611f5a906137f5565b60405180910390fd5b565b600073ffffffffffffffffffffffffffffffffffffffff168273ffffffffffffffffffffffffffffffffffffffff161415611fd5576040517f08c379a0000000000000000000000000000000000000000000000000000000008152600401611fcc90613887565b60405180910390fd5b611fe182600083612161565b600060c960008473ffffffffffffffffffffffffffffffffffffffff1673ffffffffffffffffffffffffffffffffffffffff16815260200190815260200160002054905081811015612068576040517f08c379a000000000000000000000000000000000000000000000000000000000815260040161205f90613919565b60405180910390fd5b81810360c960008573ffffffffffffffffffffffffffffffffffffffff1673ffffffffffffffffffffffffffffffffffffffff168152602001908152602001600020819055508160cb60008282546120c09190613939565b92505081905550600073ffffffffffffffffffffffffffffffffffffffff168373ffffffffffffffffffffffffffffffffffffffff167fddf252ad1be2c89b69c2b068fc378daa952ba7f163c4a11628f55a4df523b3ef846040516121259190612996565b60405180910390a361213983600084612166565b505050565b60008061214961144e565b90506121568185856116ad565b600191505092915050565b505050565b505050565b60006121cd826040518060400160405280602081526020017f5361666545524332303a206c6f772d6c6576656c2063616c6c206661696c65648152508573ffffffffffffffffffffffffffffffffffffffff1661240d9092919063ffffffff16565b905060008151111561222d57808060200190518101906121ed9190613999565b61222c576040517f08c379a000000000000000000000000000000000000000000000000000000000815260040161222390613a38565b60405180910390fd5b5b505050565b6000819050919050565b6000819050919050565b61224f81611e3b565b61228e576040517f08c379a000000000000000000000000000000000000000000000000000000000815260040161228590613aca565b60405180910390fd5b806122bb7f360894a13ba1a3210667c828492db98dca3e2076cc3735a920a3ca505d382bbc60001b612232565b60000160006101000a81548173ffffffffffffffffffffffffffffffffffffffff021916908373ffffffffffffffffffffffffffffffffffffffff16021790555050565b61230883612425565b6000825111806123155750805b15612326576123248383612474565b505b505050565b600060019054906101000a900460ff1661237a576040517f08c379a0000000000000000000000000000000000000000000000000000000008152600401612371906137f5565b60405180910390fd5b8160cc90805190602001906123909291906126d3565b508060cd90805190602001906123a79291906126d3565b505050565b600060019054906101000a900460ff166123fb576040517f08c379a00000000000000000000000000000000000000000000000000000000081526004016123f2906137f5565b60405180910390fd5b61240b61240661144e565b611d75565b565b606061241c8484600085612558565b90509392505050565b61242e81612246565b8073ffffffffffffffffffffffffffffffffffffffff167fbc7cd75a20ee27fd9adebab32041f755214dbc6bffa90cc0225b39da2e5c2d3b60405160405180910390a250565b606061247f83611e3b565b6124be576040517f08c379a00000000000000000000000000000000000000000000000000000000081526004016124b590613b5c565b60405180910390fd5b6000808473ffffffffffffffffffffffffffffffffffffffff16846040516124e69190613bc3565b600060405180830381855af49150503d8060008114612521576040519150601f19603f3d011682016040523d82523d6000602084013e612526565b606091505b509150915061254e8282604051806060016040528060278152602001613cd96027913961266c565b9250505092915050565b60608247101561259d576040517f08c379a000000000000000000000000000000000000000000000000000000000815260040161259490613c4c565b60405180910390fd5b6125a685611e3b565b6125e5576040517f08c379a00000000000000000000000000000000000000000000000000000000081526004016125dc90613cb8565b60405180910390fd5b6000808673ffffffffffffffffffffffffffffffffffffffff16858760405161260e9190613bc3565b60006040518083038185875af1925050503d806000811461264b576040519150601f19603f3d011682016040523d82523d6000602084013e612650565b606091505b509150915061266082828661266c565b92505050949350505050565b6060831561267c578290506126cc565b60008351111561268f5782518084602001fd5b816040517f08c379a00000000000000000000000000000000000000000000000000000000081526004016126c39190612892565b60405180910390fd5b9392505050565b8280546126df90612cb7565b90600052602060002090601f0160209004810192826127015760008555612748565b82601f1061271a57805160ff1916838001178555612748565b82800160010185558215612748579182015b8281111561274757825182559160200191906001019061272c565b5b5090506127559190612759565b5090565b5b8082111561277257600081600090555060010161275a565b5090565b600073ffffffffffffffffffffffffffffffffffffffff82169050919050565b60006127a182612776565b9050919050565b6127b181612796565b82525050565b6000819050919050565b6127ca816127b7565b82525050565b60006040820190506127e560008301856127a8565b6127f260208301846127c1565b9392505050565b600081519050919050565b600082825260208201905092915050565b60005b83811015612833578082015181840152602081019050612818565b83811115612842576000848401525b50505050565b6000601f19601f8301169050919050565b6000612864826127f9565b61286e8185612804565b935061287e818560208601612815565b61288781612848565b840191505092915050565b600060208201905081810360008301526128ac8184612859565b905092915050565b6000604051905090565b600080fd5b600080fd5b6128d181612796565b81146128dc57600080fd5b50565b6000813590506128ee816128c8565b92915050565b6128fd816127b7565b811461290857600080fd5b50565b60008135905061291a816128f4565b92915050565b60008060408385031215612937576129366128be565b5b6000612945858286016128df565b92505060206129568582860161290b565b9150509250929050565b60008115159050919050565b61297581612960565b82525050565b6000602082019050612990600083018461296c565b92915050565b60006020820190506129ab60008301846127c1565b92915050565b6000806000606084860312156129ca576129c96128be565b5b60006129d8868287016128df565b93505060206129e9868287016128df565b92505060406129fa8682870161290b565b9150509250925092565b600060ff82169050919050565b612a1a81612a04565b82525050565b6000602082019050612a356000830184612a11565b92915050565b600060208284031215612a5157612a506128be565b5b6000612a5f848285016128df565b91505092915050565b600080fd5b600080fd5b7f4e487b7100000000000000000000000000000000000000000000000000000000600052604160045260246000fd5b612aaa82612848565b810181811067ffffffffffffffff82111715612ac957612ac8612a72565b5b80604052505050565b6000612adc6128b4565b9050612ae88282612aa1565b919050565b600067ffffffffffffffff821115612b0857612b07612a72565b5b612b1182612848565b9050602081019050919050565b82818337600083830152505050565b6000612b40612b3b84612aed565b612ad2565b905082815260208101848484011115612b5c57612b5b612a6d565b5b612b67848285612b1e565b509392505050565b600082601f830112612b8457612b83612a68565b5b8135612b94848260208601612b2d565b91505092915050565b60008060408385031215612bb457612bb36128be565b5b6000612bc2858286016128df565b925050602083013567ffffffffffffffff811115612be357612be26128c3565b5b612bef85828601612b6f565b9150509250929050565b6000819050919050565b612c0c81612bf9565b82525050565b6000602082019050612c276000830184612c03565b92915050565b6000602082019050612c4260008301846127a8565b92915050565b60008060408385031215612c5f57612c5e6128be565b5b6000612c6d858286016128df565b9250506020612c7e858286016128df565b9150509250929050565b7f4e487b7100000000000000000000000000000000000000000000000000000000600052602260045260246000fd5b60006002820490506001821680612ccf57607f821691505b60208210811415612ce357612ce2612c88565b5b50919050565b600081519050612cf8816128f4565b92915050565b600060208284031215612d1457612d136128be565b5b6000612d2284828501612ce9565b91505092915050565b7f46756e6374696f6e206d7573742062652063616c6c6564207468726f7567682060008201527f64656c656761746563616c6c0000000000000000000000000000000000000000602082015250565b6000612d87602c83612804565b9150612d9282612d2b565b604082019050919050565b60006020820190508181036000830152612db681612d7a565b9050919050565b7f46756e6374696f6e206d7573742062652063616c6c6564207468726f7567682060008201527f6163746976652070726f78790000000000000000000000000000000000000000602082015250565b6000612e19602c83612804565b9150612e2482612dbd565b604082019050919050565b60006020820190508181036000830152612e4881612e0c565b9050919050565b7f4e487b7100000000000000000000000000000000000000000000000000000000600052601160045260246000fd5b6000612e89826127b7565b9150612e94836127b7565b9250827fffffffffffffffffffffffffffffffffffffffffffffffffffffffffffffffff03821115612ec957612ec8612e4f565b5b828201905092915050565b7f555550535570677261646561626c653a206d757374206e6f742062652063616c60008201527f6c6564207468726f7567682064656c656761746563616c6c0000000000000000602082015250565b6000612f30603883612804565b9150612f3b82612ed4565b604082019050919050565b60006020820190508181036000830152612f5f81612f23565b9050919050565b7f496e697469616c697a61626c653a20636f6e747261637420697320616c72656160008201527f647920696e697469616c697a6564000000000000000000000000000000000000602082015250565b6000612fc2602e83612804565b9150612fcd82612f66565b604082019050919050565b60006020820190508181036000830152612ff181612fb5565b9050919050565b6000819050919050565b6000819050919050565b600061302761302261301d84612ff8565b613002565b612a04565b9050919050565b6130378161300c565b82525050565b6000602082019050613052600083018461302e565b92915050565b7f45524332303a2064656372656173656420616c6c6f77616e63652062656c6f7760008201527f207a65726f000000000000000000000000000000000000000000000000000000602082015250565b60006130b4602583612804565b91506130bf82613058565b604082019050919050565b600060208201905081810360008301526130e3816130a7565b9050919050565b7f5472616e7366657220746f20626c61636b6c6973746564206164647265737300600082015250565b6000613120601f83612804565b915061312b826130ea565b602082019050919050565b6000602082019050818103600083015261314f81613113565b9050919050565b7f4f776e61626c653a206e6577206f776e657220697320746865207a65726f206160008201527f6464726573730000000000000000000000000000000000000000000000000000602082015250565b60006131b2602683612804565b91506131bd82613156565b604082019050919050565b600060208201905081810360008301526131e1816131a5565b9050919050565b7f45524332303a20617070726f76652066726f6d20746865207a65726f2061646460008201527f7265737300000000000000000000000000000000000000000000000000000000602082015250565b6000613244602483612804565b915061324f826131e8565b604082019050919050565b6000602082019050818103600083015261327381613237565b9050919050565b7f45524332303a20617070726f766520746f20746865207a65726f20616464726560008201527f7373000000000000000000000000000000000000000000000000000000000000602082015250565b60006132d6602283612804565b91506132e18261327a565b604082019050919050565b60006020820190508181036000830152613305816132c9565b9050919050565b7f45524332303a20696e73756666696369656e7420616c6c6f77616e6365000000600082015250565b6000613342601d83612804565b915061334d8261330c565b602082019050919050565b6000602082019050818103600083015261337181613335565b9050919050565b7f45524332303a207472616e736665722066726f6d20746865207a65726f20616460008201527f6472657373000000000000000000000000000000000000000000000000000000602082015250565b60006133d4602583612804565b91506133df82613378565b604082019050919050565b60006020820190508181036000830152613403816133c7565b9050919050565b7f45524332303a207472616e7366657220746f20746865207a65726f206164647260008201527f6573730000000000000000000000000000000000000000000000000000000000602082015250565b6000613466602383612804565b91506134718261340a565b604082019050919050565b6000602082019050818103600083015261349581613459565b9050919050565b7f45524332303a207472616e7366657220616d6f756e742065786365656473206260008201527f616c616e63650000000000000000000000000000000000000000000000000000602082015250565b60006134f8602683612804565b91506135038261349c565b604082019050919050565b60006020820190508181036000830152613527816134eb565b9050919050565b7f4f776e61626c653a2063616c6c6572206973206e6f7420746865206f776e6572600082015250565b6000613564602083612804565b915061356f8261352e565b602082019050919050565b6000602082019050818103600083015261359381613557565b9050919050565b6135a381612bf9565b81146135ae57600080fd5b50565b6000815190506135c08161359a565b92915050565b6000602082840312156135dc576135db6128be565b5b60006135ea848285016135b1565b91505092915050565b7f45524331393637557067726164653a206e657720696d706c656d656e7461746960008201527f6f6e206973206e6f742055555053000000000000000000000000000000000000602082015250565b600061364f602e83612804565b915061365a826135f3565b604082019050919050565b6000602082019050818103600083015261367e81613642565b9050919050565b7f45524331393637557067726164653a20756e737570706f727465642070726f7860008201527f6961626c65555549440000000000000000000000000000000000000000000000602082015250565b60006136e1602983612804565b91506136ec82613685565b604082019050919050565b60006020820190508181036000830152613710816136d4565b9050919050565b7f45524332303a206d696e7420746f20746865207a65726f206164647265737300600082015250565b600061374d601f83612804565b915061375882613717565b602082019050919050565b6000602082019050818103600083015261377c81613740565b9050919050565b7f496e697469616c697a61626c653a20636f6e7472616374206973206e6f74206960008201527f6e697469616c697a696e67000000000000000000000000000000000000000000602082015250565b60006137df602b83612804565b91506137ea82613783565b604082019050919050565b6000602082019050818103600083015261380e816137d2565b9050919050565b7f45524332303a206275726e2066726f6d20746865207a65726f2061646472657360008201527f7300000000000000000000000000000000000000000000000000000000000000602082015250565b6000613871602183612804565b915061387c82613815565b604082019050919050565b600060208201905081810360008301526138a081613864565b9050919050565b7f45524332303a206275726e20616d6f756e7420657863656564732062616c616e60008201527f6365000000000000000000000000000000000000000000000000000000000000602082015250565b6000613903602283612804565b915061390e826138a7565b604082019050919050565b60006020820190508181036000830152613932816138f6565b9050919050565b6000613944826127b7565b915061394f836127b7565b92508282101561396257613961612e4f565b5b828203905092915050565b61397681612960565b811461398157600080fd5b50565b6000815190506139938161396d565b92915050565b6000602082840312156139af576139ae6128be565b5b60006139bd84828501613984565b91505092915050565b7f5361666545524332303a204552433230206f7065726174696f6e20646964206e60008201527f6f74207375636365656400000000000000000000000000000000000000000000602082015250565b6000613a22602a83612804565b9150613a2d826139c6565b604082019050919050565b60006020820190508181036000830152613a5181613a15565b9050919050565b7f455243313936373a206e657720696d706c656d656e746174696f6e206973206e60008201527f6f74206120636f6e747261637400000000000000000000000000000000000000602082015250565b6000613ab4602d83612804565b9150613abf82613a58565b604082019050919050565b60006020820190508181036000830152613ae381613aa7565b9050919050565b7f416464726573733a2064656c65676174652063616c6c20746f206e6f6e2d636f60008201527f6e74726163740000000000000000000000000000000000000000000000000000602082015250565b6000613b46602683612804565b9150613b5182613aea565b604082019050919050565b60006020820190508181036000830152613b7581613b39565b9050919050565b600081519050919050565b600081905092915050565b6000613b9d82613b7c565b613ba78185613b87565b9350613bb7818560208601612815565b80840191505092915050565b6000613bcf8284613b92565b915081905092915050565b7f416464726573733a20696e73756666696369656e742062616c616e636520666f60008201527f722063616c6c0000000000000000000000000000000000000000000000000000602082015250565b6000613c36602683612804565b9150613c4182613bda565b604082019050919050565b60006020820190508181036000830152613c6581613c29565b9050919050565b7f416464726573733a2063616c6c20746f206e6f6e2d636f6e7472616374000000600082015250565b6000613ca2601d83612804565b9150613cad82613c6c565b602082019050919050565b60006020820190508181036000830152613cd181613c95565b905091905056fe416464726573733a206c6f772d6c6576656c2064656c65676174652063616c6c206661696c6564a264697066735822122059f2ebc68ef9a3324e25dce7c2b78ccde4d5f3a0f6f6ac73b3f96632d882952464736f6c63430008090033",
  "linkReferences": {},
  "deployedLinkReferences": {}
}